{
  "contractName": "CrowdFunding",
  "abi": [
    {
      "inputs": [
        {
          "internalType": "uint256",
          "name": "",
          "type": "uint256"
        }
      ],
      "name": "campaigns",
      "outputs": [
        {
          "internalType": "address",
          "name": "owner",
          "type": "address"
        },
        {
          "internalType": "string",
          "name": "title",
          "type": "string"
        },
        {
          "internalType": "string",
          "name": "description",
          "type": "string"
        },
        {
          "internalType": "uint256",
          "name": "target",
          "type": "uint256"
        },
        {
          "internalType": "uint256",
          "name": "deadline",
          "type": "uint256"
        },
        {
          "internalType": "uint256",
          "name": "amountCollected",
          "type": "uint256"
        },
        {
          "internalType": "string",
          "name": "image",
          "type": "string"
        }
      ],
      "stateMutability": "view",
      "type": "function",
      "constant": true
    },
    {
      "inputs": [],
      "name": "numberOfCampaigns",
      "outputs": [
        {
          "internalType": "uint256",
          "name": "",
          "type": "uint256"
        }
      ],
      "stateMutability": "view",
      "type": "function",
      "constant": true
    },
    {
      "inputs": [
        {
          "internalType": "address",
          "name": "_owner",
          "type": "address"
        },
        {
          "internalType": "string",
          "name": "_title",
          "type": "string"
        },
        {
          "internalType": "string",
          "name": "_description",
          "type": "string"
        },
        {
          "internalType": "uint256",
          "name": "_target",
          "type": "uint256"
        },
        {
          "internalType": "uint256",
          "name": "_deadline",
          "type": "uint256"
        },
        {
          "internalType": "string",
          "name": "_image",
          "type": "string"
        }
      ],
      "name": "createCampaign",
      "outputs": [
        {
          "internalType": "uint256",
          "name": "",
          "type": "uint256"
        }
      ],
      "stateMutability": "nonpayable",
      "type": "function"
    },
    {
      "inputs": [
        {
          "internalType": "uint256",
          "name": "_id",
          "type": "uint256"
        }
      ],
      "name": "donateToCampaign",
      "outputs": [],
      "stateMutability": "payable",
      "type": "function",
      "payable": true
    },
    {
      "inputs": [
        {
          "internalType": "uint256",
          "name": "_id",
          "type": "uint256"
        }
      ],
      "name": "getDonators",
      "outputs": [
        {
          "internalType": "address[]",
          "name": "",
          "type": "address[]"
        },
        {
          "internalType": "uint256[]",
          "name": "",
          "type": "uint256[]"
        }
      ],
      "stateMutability": "view",
      "type": "function",
      "constant": true
    },
    {
      "inputs": [],
      "name": "getCampaigns",
      "outputs": [
        {
          "components": [
            {
              "internalType": "address",
              "name": "owner",
              "type": "address"
            },
            {
              "internalType": "string",
              "name": "title",
              "type": "string"
            },
            {
              "internalType": "string",
              "name": "description",
              "type": "string"
            },
            {
              "internalType": "uint256",
              "name": "target",
              "type": "uint256"
            },
            {
              "internalType": "uint256",
              "name": "deadline",
              "type": "uint256"
            },
            {
              "internalType": "uint256",
              "name": "amountCollected",
              "type": "uint256"
            },
            {
              "internalType": "string",
              "name": "image",
              "type": "string"
            },
            {
              "internalType": "address[]",
              "name": "donators",
              "type": "address[]"
            },
            {
              "internalType": "uint256[]",
              "name": "donations",
              "type": "uint256[]"
            }
          ],
          "internalType": "struct CrowdFunding.Campaign[]",
          "name": "",
          "type": "tuple[]"
        }
      ],
      "stateMutability": "view",
      "type": "function",
      "constant": true
    }
  ],
  "bytecode": "0x6080604052600060015534801561001557600080fd5b50611795806100256000396000f3fe6080604052600436106100555760003560e01c806307ca140d1461005a5780630fa91fa914610085578063141961bc146100c357806342a4fda8146101065780639943e3a114610122578063a6b036331461015f575b600080fd5b34801561006657600080fd5b5061006f61018a565b60405161007c9190610c2d565b60405180910390f35b34801561009157600080fd5b506100ac60048036038101906100a79190610c88565b610190565b6040516100ba929190610e63565b60405180910390f35b3480156100cf57600080fd5b506100ea60048036038101906100e59190610c88565b6102a0565b6040516100fd9796959493929190610f42565b60405180910390f35b610120600480360381019061011b9190610c88565b61049a565b005b34801561012e57600080fd5b5061014960048036038101906101449190611127565b6105fd565b6040516101569190610c2d565b60405180910390f35b34801561016b57600080fd5b50610174610739565b60405161018191906114d3565b60405180910390f35b60015481565b6060806000808481526020019081526020016000206007016000808581526020019081526020016000206008018180548060200260200160405190810160405280929190818152602001828054801561023e57602002820191906000526020600020905b8160009054906101000a900473ffffffffffffffffffffffffffffffffffffffff1673ffffffffffffffffffffffffffffffffffffffff16815260200190600101908083116101f4575b505050505091508080548060200260200160405190810160405280929190818152602001828054801561029057602002820191906000526020600020905b81548152602001906001019080831161027c575b5050505050905091509150915091565b60006020528060005260406000206000915090508060000160009054906101000a900473ffffffffffffffffffffffffffffffffffffffff16908060010180546102e990611524565b80601f016020809104026020016040519081016040528092919081815260200182805461031590611524565b80156103625780601f1061033757610100808354040283529160200191610362565b820191906000526020600020905b81548152906001019060200180831161034557829003601f168201915b50505050509080600201805461037790611524565b80601f01602080910402602001604051908101604052809291908181526020018280546103a390611524565b80156103f05780601f106103c5576101008083540402835291602001916103f0565b820191906000526020600020905b8154815290600101906020018083116103d357829003601f168201915b50505050509080600301549080600401549080600501549080600601805461041790611524565b80601f016020809104026020016040519081016040528092919081815260200182805461044390611524565b80156104905780601f1061046557610100808354040283529160200191610490565b820191906000526020600020905b81548152906001019060200180831161047357829003601f168201915b5050505050905087565b60003490506000806000848152602001908152602001600020905080600701339080600181540180825580915050600190039060005260206000200160009091909190916101000a81548173ffffffffffffffffffffffffffffffffffffffff021916908373ffffffffffffffffffffffffffffffffffffffff1602179055508060080182908060018154018082558091505060019003906000526020600020016000909190919091505560008160000160009054906101000a900473ffffffffffffffffffffffffffffffffffffffff1673ffffffffffffffffffffffffffffffffffffffff168360405161058f90611587565b60006040518083038185875af1925050503d80600081146105cc576040519150601f19603f3d011682016040523d82523d6000602084013e6105d1565b606091505b5050905080156105f757828260050160008282546105ef91906115cb565b925050819055505b50505050565b600080600080600154815260200190815260200160002090504281600401541161065c576040517f08c379a000000000000000000000000000000000000000000000000000000000815260040161065390611693565b60405180910390fd5b878160000160006101000a81548173ffffffffffffffffffffffffffffffffffffffff021916908373ffffffffffffffffffffffffffffffffffffffff160217905550868160010190805190602001906106b7929190610b0f565b50858160020190805190602001906106d0929190610b0f565b508481600301819055508381600401819055506000816005018190555082816006019080519060200190610705929190610b0f565b5060016000815480929190610719906116b3565b91905055506001805461072c91906116fc565b9150509695505050505050565b6060600060015467ffffffffffffffff81111561075957610758610ffc565b5b60405190808252806020026020018201604052801561079257816020015b61077f610b95565b8152602001906001900390816107775790505b50905060005b600154811015610b07576000806000838152602001908152602001600020905080604051806101200160405290816000820160009054906101000a900473ffffffffffffffffffffffffffffffffffffffff1673ffffffffffffffffffffffffffffffffffffffff1673ffffffffffffffffffffffffffffffffffffffff16815260200160018201805461082b90611524565b80601f016020809104026020016040519081016040528092919081815260200182805461085790611524565b80156108a45780601f10610879576101008083540402835291602001916108a4565b820191906000526020600020905b81548152906001019060200180831161088757829003601f168201915b505050505081526020016002820180546108bd90611524565b80601f01602080910402602001604051908101604052809291908181526020018280546108e990611524565b80156109365780601f1061090b57610100808354040283529160200191610936565b820191906000526020600020905b81548152906001019060200180831161091957829003601f168201915b5050505050815260200160038201548152602001600482015481526020016005820154815260200160068201805461096d90611524565b80601f016020809104026020016040519081016040528092919081815260200182805461099990611524565b80156109e65780601f106109bb576101008083540402835291602001916109e6565b820191906000526020600020905b8154815290600101906020018083116109c957829003601f168201915b5050505050815260200160078201805480602002602001604051908101604052809291908181526020018280548015610a7457602002820191906000526020600020905b8160009054906101000a900473ffffffffffffffffffffffffffffffffffffffff1673ffffffffffffffffffffffffffffffffffffffff1681526020019060010190808311610a2a575b5050505050815260200160088201805480602002602001604051908101604052809291908181526020018280548015610acc57602002820191906000526020600020905b815481526020019060010190808311610ab8575b505050505081525050838381518110610ae857610ae7611730565b5b6020026020010181905250508080610aff906116b3565b915050610798565b508091505090565b828054610b1b90611524565b90600052602060002090601f016020900481019282610b3d5760008555610b84565b82601f10610b5657805160ff1916838001178555610b84565b82800160010185558215610b84579182015b82811115610b83578251825591602001919060010190610b68565b5b509050610b919190610bf7565b5090565b604051806101200160405280600073ffffffffffffffffffffffffffffffffffffffff16815260200160608152602001606081526020016000815260200160008152602001600081526020016060815260200160608152602001606081525090565b5b80821115610c10576000816000905550600101610bf8565b5090565b6000819050919050565b610c2781610c14565b82525050565b6000602082019050610c426000830184610c1e565b92915050565b6000604051905090565b600080fd5b600080fd5b610c6581610c14565b8114610c7057600080fd5b50565b600081359050610c8281610c5c565b92915050565b600060208284031215610c9e57610c9d610c52565b5b6000610cac84828501610c73565b91505092915050565b600081519050919050565b600082825260208201905092915050565b6000819050602082019050919050565b600073ffffffffffffffffffffffffffffffffffffffff82169050919050565b6000610d0c82610ce1565b9050919050565b610d1c81610d01565b82525050565b6000610d2e8383610d13565b60208301905092915050565b6000602082019050919050565b6000610d5282610cb5565b610d5c8185610cc0565b9350610d6783610cd1565b8060005b83811015610d98578151610d7f8882610d22565b9750610d8a83610d3a565b925050600181019050610d6b565b5085935050505092915050565b600081519050919050565b600082825260208201905092915050565b6000819050602082019050919050565b610dda81610c14565b82525050565b6000610dec8383610dd1565b60208301905092915050565b6000602082019050919050565b6000610e1082610da5565b610e1a8185610db0565b9350610e2583610dc1565b8060005b83811015610e56578151610e3d8882610de0565b9750610e4883610df8565b925050600181019050610e29565b5085935050505092915050565b60006040820190508181036000830152610e7d8185610d47565b90508181036020830152610e918184610e05565b90509392505050565b610ea381610d01565b82525050565b600081519050919050565b600082825260208201905092915050565b60005b83811015610ee3578082015181840152602081019050610ec8565b83811115610ef2576000848401525b50505050565b6000601f19601f8301169050919050565b6000610f1482610ea9565b610f1e8185610eb4565b9350610f2e818560208601610ec5565b610f3781610ef8565b840191505092915050565b600060e082019050610f57600083018a610e9a565b8181036020830152610f698189610f09565b90508181036040830152610f7d8188610f09565b9050610f8c6060830187610c1e565b610f996080830186610c1e565b610fa660a0830185610c1e565b81810360c0830152610fb88184610f09565b905098975050505050505050565b610fcf81610d01565b8114610fda57600080fd5b50565b600081359050610fec81610fc6565b92915050565b600080fd5b600080fd5b7f4e487b7100000000000000000000000000000000000000000000000000000000600052604160045260246000fd5b61103482610ef8565b810181811067ffffffffffffffff8211171561105357611052610ffc565b5b80604052505050565b6000611066610c48565b9050611072828261102b565b919050565b600067ffffffffffffffff82111561109257611091610ffc565b5b61109b82610ef8565b9050602081019050919050565b82818337600083830152505050565b60006110ca6110c584611077565b61105c565b9050828152602081018484840111156110e6576110e5610ff7565b5b6110f18482856110a8565b509392505050565b600082601f83011261110e5761110d610ff2565b5b813561111e8482602086016110b7565b91505092915050565b60008060008060008060c0878903121561114457611143610c52565b5b600061115289828a01610fdd565b965050602087013567ffffffffffffffff81111561117357611172610c57565b5b61117f89828a016110f9565b955050604087013567ffffffffffffffff8111156111a05761119f610c57565b5b6111ac89828a016110f9565b94505060606111bd89828a01610c73565b93505060806111ce89828a01610c73565b92505060a087013567ffffffffffffffff8111156111ef576111ee610c57565b5b6111fb89828a016110f9565b9150509295509295509295565b600081519050919050565b600082825260208201905092915050565b6000819050602082019050919050565b600082825260208201905092915050565b600061125082610ea9565b61125a8185611234565b935061126a818560208601610ec5565b61127381610ef8565b840191505092915050565b600082825260208201905092915050565b600061129a82610cb5565b6112a4818561127e565b93506112af83610cd1565b8060005b838110156112e05781516112c78882610d22565b97506112d283610d3a565b9250506001810190506112b3565b5085935050505092915050565b600082825260208201905092915050565b600061130982610da5565b61131381856112ed565b935061131e83610dc1565b8060005b8381101561134f5781516113368882610de0565b975061134183610df8565b925050600181019050611322565b5085935050505092915050565b6000610120830160008301516113756000860182610d13565b506020830151848203602086015261138d8282611245565b915050604083015184820360408601526113a78282611245565b91505060608301516113bc6060860182610dd1565b5060808301516113cf6080860182610dd1565b5060a08301516113e260a0860182610dd1565b5060c083015184820360c08601526113fa8282611245565b91505060e083015184820360e0860152611414828261128f565b91505061010083015184820361010086015261143082826112fe565b9150508091505092915050565b6000611449838361135c565b905092915050565b6000602082019050919050565b600061146982611208565b6114738185611213565b93508360208202850161148585611224565b8060005b858110156114c157848403895281516114a2858261143d565b94506114ad83611451565b925060208a01995050600181019050611489565b50829750879550505050505092915050565b600060208201905081810360008301526114ed818461145e565b905092915050565b7f4e487b7100000000000000000000000000000000000000000000000000000000600052602260045260246000fd5b6000600282049050600182168061153c57607f821691505b602082108114156115505761154f6114f5565b5b50919050565b600081905092915050565b50565b6000611571600083611556565b915061157c82611561565b600082019050919050565b600061159282611564565b9150819050919050565b7f4e487b7100000000000000000000000000000000000000000000000000000000600052601160045260246000fd5b60006115d682610c14565b91506115e183610c14565b9250827fffffffffffffffffffffffffffffffffffffffffffffffffffffffffffffffff038211156116165761161561159c565b5b828201905092915050565b7f54686520646561646c696e652073686f756c642062652061206461746520696e60008201527f20746865206675747572652e0000000000000000000000000000000000000000602082015250565b600061167d602c83610eb4565b915061168882611621565b604082019050919050565b600060208201905081810360008301526116ac81611670565b9050919050565b60006116be82610c14565b91507fffffffffffffffffffffffffffffffffffffffffffffffffffffffffffffffff8214156116f1576116f061159c565b5b600182019050919050565b600061170782610c14565b915061171283610c14565b9250828210156117255761172461159c565b5b828203905092915050565b7f4e487b7100000000000000000000000000000000000000000000000000000000600052603260045260246000fdfea26469706673582212207d0de705c431b59b39a40032fb6e65375d2570087cb7c1e7b40d9ffd274a9f0e64736f6c63430008090033",
  "immutableReferences": {},
  "source": "// SPDX-License-Identifier: UNLICENSED\npragma solidity ^0.8.9;\n\ncontract CrowdFunding {\n    struct Campaign {\n        address owner;\n        string title;\n        string description;\n        uint256 target;\n        uint256 deadline;\n        uint256 amountCollected;\n        string image;\n        address[] donators;\n        uint256[] donations;\n    }\n\n    mapping(uint256 => Campaign) public campaigns;\n\n    uint256 public numberOfCampaigns = 0;\n\n    function createCampaign(\n        address _owner,\n        string memory _title,\n        string memory _description,\n        uint256 _target,\n        uint256 _deadline,\n        string memory _image\n    ) public returns (uint256) {\n        Campaign storage campaign = campaigns[numberOfCampaigns];\n\n        require(\n            campaign.deadline > block.timestamp,\n            \"The deadline should be a date in the future.\"\n        );\n\n        campaign.owner = _owner;\n        campaign.title = _title;\n        campaign.description = _description;\n        campaign.target = _target;\n        campaign.deadline = _deadline;\n        campaign.amountCollected = 0;\n        campaign.image = _image;\n\n        numberOfCampaigns++;\n\n        return numberOfCampaigns - 1;\n    }\n\n    function donateToCampaign(uint256 _id) public payable {\n        uint256 amount = msg.value;\n\n        Campaign storage campaign = campaigns[_id];\n\n        campaign.donators.push(msg.sender);\n        campaign.donations.push(amount);\n\n        (bool sent, ) = payable(campaign.owner).call{value: amount}(\"\");\n\n        if (sent) {\n            campaign.amountCollected += amount;\n        }\n    }\n\n    function getDonators(\n        uint256 _id\n    ) public view returns (address[] memory, uint256[] memory) {\n        return (campaigns[_id].donators, campaigns[_id].donations);\n    }\n\n    function getCampaigns() public view returns (Campaign[] memory) {\n        Campaign[] memory allCampaigns = new Campaign[](numberOfCampaigns);\n\n        for (uint i = 0; i < numberOfCampaigns; i++) {\n            Campaign storage item = campaigns[i];\n\n            allCampaigns[i] = item;\n        }\n\n        return allCampaigns;\n    }\n}\n",
  "sourcePath": "/Users/akmaral/Desktop/Projects/blockchain/crowdfunding/web3/contracts/CrowdFunding.sol",
  "compiler": {
    "name": "solc",
    "version": "0.8.9+commit.e5eed63a.Emscripten.clang"
  },
  "schemaVersion": "3.4.16",
  "updatedAt": "2024-12-02T20:51:47.789Z",
  "networkType": "ethereum",
  "devdoc": {
    "kind": "dev",
    "methods": {},
    "version": 1
  },
  "userdoc": {
    "kind": "user",
    "methods": {},
    "version": 1
  }
}