{
  "contractName": "CrowdFunding",
  "abi": [
    {
      "anonymous": false,
      "inputs": [
        {
          "indexed": false,
          "internalType": "uint256",
          "name": "id",
          "type": "uint256"
        },
        {
          "indexed": false,
          "internalType": "string",
          "name": "name",
          "type": "string"
        },
        {
          "indexed": false,
          "internalType": "string",
          "name": "description",
          "type": "string"
        },
        {
          "indexed": false,
          "internalType": "address",
          "name": "owner",
          "type": "address"
        },
        {
          "indexed": false,
          "internalType": "uint256",
          "name": "endDate",
          "type": "uint256"
        },
        {
          "indexed": false,
          "internalType": "bool",
          "name": "exists",
          "type": "bool"
        },
        {
          "indexed": false,
          "internalType": "uint256",
          "name": "amountCollected",
          "type": "uint256"
        },
        {
          "indexed": false,
          "internalType": "uint256",
          "name": "target",
          "type": "uint256"
        }
      ],
      "name": "CampaignCreated",
      "type": "event"
    },
    {
      "anonymous": false,
      "inputs": [
        {
          "indexed": false,
          "internalType": "uint256",
          "name": "id",
          "type": "uint256"
        },
        {
          "indexed": false,
          "internalType": "string",
          "name": "name",
          "type": "string"
        },
        {
          "indexed": false,
          "internalType": "uint256",
          "name": "amountCollected",
          "type": "uint256"
        }
      ],
      "name": "CampaignEnded",
      "type": "event"
    },
    {
      "anonymous": false,
      "inputs": [
        {
          "indexed": false,
          "internalType": "uint256",
          "name": "id",
          "type": "uint256"
        },
        {
          "indexed": false,
          "internalType": "address",
          "name": "owner",
          "type": "address"
        },
        {
          "indexed": false,
          "internalType": "address",
          "name": "donator",
          "type": "address"
        },
        {
          "indexed": false,
          "internalType": "uint256",
          "name": "amount",
          "type": "uint256"
        }
      ],
      "name": "CampaignFunded",
      "type": "event"
    },
    {
      "inputs": [
        {
          "internalType": "uint256",
          "name": "",
          "type": "uint256"
        }
      ],
      "name": "campaigns",
      "outputs": [
        {
          "internalType": "uint256",
          "name": "id",
          "type": "uint256"
        },
        {
          "internalType": "string",
          "name": "name",
          "type": "string"
        },
        {
          "internalType": "string",
          "name": "description",
          "type": "string"
        },
        {
          "internalType": "address",
          "name": "owner",
          "type": "address"
        },
        {
          "internalType": "uint256",
          "name": "endDate",
          "type": "uint256"
        },
        {
          "internalType": "bool",
          "name": "exists",
          "type": "bool"
        },
        {
          "internalType": "uint256",
          "name": "target",
          "type": "uint256"
        },
        {
          "internalType": "uint256",
          "name": "amountCollected",
          "type": "uint256"
        },
        {
          "internalType": "string",
          "name": "image",
          "type": "string"
        }
      ],
      "stateMutability": "view",
      "type": "function",
      "constant": true
    },
    {
      "inputs": [
        {
          "internalType": "uint256",
          "name": "",
          "type": "uint256"
        },
        {
          "internalType": "address",
          "name": "",
          "type": "address"
        }
      ],
      "name": "contributions",
      "outputs": [
        {
          "internalType": "uint256",
          "name": "",
          "type": "uint256"
        }
      ],
      "stateMutability": "view",
      "type": "function",
      "constant": true
    },
    {
      "inputs": [],
      "name": "name",
      "outputs": [
        {
          "internalType": "string",
          "name": "",
          "type": "string"
        }
      ],
      "stateMutability": "view",
      "type": "function",
      "constant": true
    },
    {
      "inputs": [],
      "name": "numberOfCampaigns",
      "outputs": [
        {
          "internalType": "uint256",
          "name": "",
          "type": "uint256"
        }
      ],
      "stateMutability": "view",
      "type": "function",
      "constant": true
    },
    {
      "inputs": [
        {
          "internalType": "string",
          "name": "_name",
          "type": "string"
        },
        {
          "internalType": "string",
          "name": "_description",
          "type": "string"
        },
        {
          "internalType": "uint256",
          "name": "_target",
          "type": "uint256"
        },
        {
          "internalType": "uint256",
          "name": "_endDate",
          "type": "uint256"
        },
        {
          "internalType": "string",
          "name": "_image",
          "type": "string"
        }
      ],
      "name": "createCampaign",
      "outputs": [],
      "stateMutability": "nonpayable",
      "type": "function"
    },
    {
      "inputs": [
        {
          "internalType": "uint256",
          "name": "_id",
          "type": "uint256"
        }
      ],
      "name": "donateToCampaign",
      "outputs": [],
      "stateMutability": "payable",
      "type": "function",
      "payable": true
    },
    {
      "inputs": [
        {
          "internalType": "uint256",
          "name": "_id",
          "type": "uint256"
        }
      ],
      "name": "closeCampaigns",
      "outputs": [],
      "stateMutability": "nonpayable",
      "type": "function"
    },
    {
      "inputs": [
        {
          "internalType": "uint256",
          "name": "_id",
          "type": "uint256"
        }
      ],
      "name": "getContributorsCount",
      "outputs": [
        {
          "internalType": "uint256",
          "name": "",
          "type": "uint256"
        }
      ],
      "stateMutability": "view",
      "type": "function",
      "constant": true
    },
    {
      "inputs": [
        {
          "internalType": "uint256",
          "name": "_id",
          "type": "uint256"
        },
        {
          "internalType": "uint256",
          "name": "index",
          "type": "uint256"
        }
      ],
      "name": "getContributor",
      "outputs": [
        {
          "internalType": "address",
          "name": "",
          "type": "address"
        }
      ],
      "stateMutability": "view",
      "type": "function",
      "constant": true
    },
    {
      "inputs": [
        {
          "internalType": "uint256",
          "name": "_id",
          "type": "uint256"
        },
        {
          "internalType": "address",
          "name": "contributor",
          "type": "address"
        }
      ],
      "name": "getContribution",
      "outputs": [
        {
          "internalType": "uint256",
          "name": "",
          "type": "uint256"
        }
      ],
      "stateMutability": "view",
      "type": "function",
      "constant": true
    },
    {
      "inputs": [
        {
          "internalType": "uint256",
          "name": "_id",
          "type": "uint256"
        }
      ],
      "name": "getAllContributors",
      "outputs": [
        {
          "internalType": "address[]",
          "name": "",
          "type": "address[]"
        }
      ],
      "stateMutability": "view",
      "type": "function",
      "constant": true
    },
    {
      "inputs": [],
      "name": "balanceOfCampaigns",
      "outputs": [
        {
          "internalType": "uint256",
          "name": "",
          "type": "uint256"
        }
      ],
      "stateMutability": "view",
      "type": "function",
      "constant": true
    },
    {
      "inputs": [],
      "name": "getCampaigns",
      "outputs": [
        {
          "components": [
            {
              "internalType": "uint256",
              "name": "id",
              "type": "uint256"
            },
            {
              "internalType": "string",
              "name": "name",
              "type": "string"
            },
            {
              "internalType": "string",
              "name": "description",
              "type": "string"
            },
            {
              "internalType": "address",
              "name": "owner",
              "type": "address"
            },
            {
              "internalType": "uint256",
              "name": "endDate",
              "type": "uint256"
            },
            {
              "internalType": "bool",
              "name": "exists",
              "type": "bool"
            },
            {
              "internalType": "uint256",
              "name": "target",
              "type": "uint256"
            },
            {
              "internalType": "uint256",
              "name": "amountCollected",
              "type": "uint256"
            },
            {
              "internalType": "string",
              "name": "image",
              "type": "string"
            }
          ],
          "internalType": "struct CrowdFunding.Campaign[]",
          "name": "",
          "type": "tuple[]"
        }
      ],
      "stateMutability": "view",
      "type": "function",
      "constant": true
    }
  ],
  "bytecode": "0x6080604052600060025534801561001557600080fd5b506126dd806100256000396000f3fe6080604052600436106100c25760003560e01c806344a982e71161007f578063b6372df511610059578063b6372df51461029d578063d4e3dd6f146102c8578063e081dbf9146102f1578063f912d86f1461032e576100c2565b806344a982e7146101f85780636a60019d14610235578063a6b0363314610272576100c2565b806306fdde03146100c757806307ca140d146100f2578063141961bc1461011d57806321a5d536146101625780633d891f591461019f57806342a4fda8146101dc575b600080fd5b3480156100d357600080fd5b506100dc610357565b6040516100e991906114ec565b60405180910390f35b3480156100fe57600080fd5b506101076103e5565b6040516101149190611527565b60405180910390f35b34801561012957600080fd5b50610144600480360381019061013f9190611582565b6103eb565b6040516101599998979695949392919061160b565b60405180910390f35b34801561016e57600080fd5b5061018960048036038101906101849190611582565b6105fe565b6040516101969190611527565b60405180910390f35b3480156101ab57600080fd5b506101c660048036038101906101c191906116d9565b610622565b6040516101d39190611527565b60405180910390f35b6101f660048036038101906101f19190611582565b610647565b005b34801561020457600080fd5b5061021f600480360381019061021a9190611719565b6109f3565b60405161022c9190611759565b60405180910390f35b34801561024157600080fd5b5061025c60048036038101906102579190611582565b610a22565b6040516102699190611832565b60405180910390f35b34801561027e57600080fd5b50610287610b2b565b6040516102949190611a51565b60405180910390f35b3480156102a957600080fd5b506102b2610e3b565b6040516102bf9190611527565b60405180910390f35b3480156102d457600080fd5b506102ef60048036038101906102ea9190611ba8565b610e43565b005b3480156102fd57600080fd5b50610318600480360381019061031391906116d9565b611040565b6040516103259190611527565b60405180910390f35b34801561033a57600080fd5b5061035560048036038101906103509190611582565b61109b565b005b6000805461036490611ca6565b80601f016020809104026020016040519081016040528092919081815260200182805461039090611ca6565b80156103dd5780601f106103b2576101008083540402835291602001916103dd565b820191906000526020600020905b8154815290600101906020018083116103c057829003601f168201915b505050505081565b60025481565b600160205280600052604060002060009150905080600001549080600101805461041490611ca6565b80601f016020809104026020016040519081016040528092919081815260200182805461044090611ca6565b801561048d5780601f106104625761010080835404028352916020019161048d565b820191906000526020600020905b81548152906001019060200180831161047057829003601f168201915b5050505050908060020180546104a290611ca6565b80601f01602080910402602001604051908101604052809291908181526020018280546104ce90611ca6565b801561051b5780601f106104f05761010080835404028352916020019161051b565b820191906000526020600020905b8154815290600101906020018083116104fe57829003601f168201915b5050505050908060030160009054906101000a900473ffffffffffffffffffffffffffffffffffffffff16908060040154908060050160009054906101000a900460ff169080600601549080600701549080600801805461057b90611ca6565b80601f01602080910402602001604051908101604052809291908181526020018280546105a790611ca6565b80156105f45780601f106105c9576101008083540402835291602001916105f4565b820191906000526020600020905b8154815290600101906020018083116105d757829003601f168201915b5050505050905089565b600061061b6004600084815260200190815260200160002061129a565b9050919050565b6003602052816000526040600020602052806000526040600020600091509150505481565b80600115156001600083815260200190815260200160002060050160009054906101000a900460ff161515146106b2576040517f08c379a00000000000000000000000000000000000000000000000000000000081526004016106a990611d23565b60405180910390fd5b6000349050600060016000858152602001908152602001600020905080600401544210610714576040517f08c379a000000000000000000000000000000000000000000000000000000000815260040161070b90611d8f565b60405180910390fd5b3373ffffffffffffffffffffffffffffffffffffffff168160030160009054906101000a900473ffffffffffffffffffffffffffffffffffffffff1673ffffffffffffffffffffffffffffffffffffffff16036107a6576040517f08c379a000000000000000000000000000000000000000000000000000000000815260040161079d90611e21565b60405180910390fd5b600082116107e9576040517f08c379a00000000000000000000000000000000000000000000000000000000081526004016107e090611eb3565b60405180910390fd5b60008160030160009054906101000a900473ffffffffffffffffffffffffffffffffffffffff1673ffffffffffffffffffffffffffffffffffffffff168360405161083390611f04565b60006040518083038185875af1925050503d8060008114610870576040519150601f19603f3d011682016040523d82523d6000602084013e610875565b606091505b50509050806108b9576040517f08c379a00000000000000000000000000000000000000000000000000000000081526004016108b090611f65565b60405180910390fd5b828260070160008282546108cd9190611fb4565b92505081905550826003600087815260200190815260200160002060003373ffffffffffffffffffffffffffffffffffffffff1673ffffffffffffffffffffffffffffffffffffffff16815260200190815260200160002060008282546109349190611fb4565b9250508190555061096033600460008881526020019081526020016000206112af90919063ffffffff16565b61098b5761098933600460008881526020019081526020016000206112df90919063ffffffff16565b505b7fc2d73ad64285a24df5c1faa866fb97462c4bdc5c42bf1563c8a80d3986e01dcd858360030160009054906101000a900473ffffffffffffffffffffffffffffffffffffffff1633866040516109e49493929190611fe8565b60405180910390a15050505050565b6000610a1a826004600086815260200190815260200160002061130f90919063ffffffff16565b905092915050565b60606000610a416004600085815260200190815260200160002061129a565b905060008167ffffffffffffffff811115610a5f57610a5e611a7d565b5b604051908082528060200260200182016040528015610a8d5781602001602082028036833780820191505090505b50905060005b82811015610b2057610ac0816004600088815260200190815260200160002061130f90919063ffffffff16565b828281518110610ad357610ad261202d565b5b602002602001019073ffffffffffffffffffffffffffffffffffffffff16908173ffffffffffffffffffffffffffffffffffffffff16815250508080610b189061205c565b915050610a93565b508092505050919050565b6060600060025467ffffffffffffffff811115610b4b57610b4a611a7d565b5b604051908082528060200260200182016040528015610b8457816020015b610b716113f8565b815260200190600190039081610b695790505b50905060005b600254811015610e3357600160008281526020019081526020016000206040518061012001604052908160008201548152602001600182018054610bcd90611ca6565b80601f0160208091040260200160405190810160405280929190818152602001828054610bf990611ca6565b8015610c465780601f10610c1b57610100808354040283529160200191610c46565b820191906000526020600020905b815481529060010190602001808311610c2957829003601f168201915b50505050508152602001600282018054610c5f90611ca6565b80601f0160208091040260200160405190810160405280929190818152602001828054610c8b90611ca6565b8015610cd85780601f10610cad57610100808354040283529160200191610cd8565b820191906000526020600020905b815481529060010190602001808311610cbb57829003601f168201915b505050505081526020016003820160009054906101000a900473ffffffffffffffffffffffffffffffffffffffff1673ffffffffffffffffffffffffffffffffffffffff1673ffffffffffffffffffffffffffffffffffffffff168152602001600482015481526020016005820160009054906101000a900460ff161515151581526020016006820154815260200160078201548152602001600882018054610d8090611ca6565b80601f0160208091040260200160405190810160405280929190818152602001828054610dac90611ca6565b8015610df95780601f10610dce57610100808354040283529160200191610df9565b820191906000526020600020905b815481529060010190602001808311610ddc57829003601f168201915b505050505081525050828281518110610e1557610e1461202d565b5b60200260200101819052508080610e2b9061205c565b915050610b8a565b508091505090565b600047905090565b6000855111610e87576040517f08c379a0000000000000000000000000000000000000000000000000000000008152600401610e7e906120f0565b60405180910390fd5b60008311610eca576040517f08c379a0000000000000000000000000000000000000000000000000000000008152600401610ec19061215c565b60405180910390fd5b428211610f0c576040517f08c379a0000000000000000000000000000000000000000000000000000000008152600401610f03906121ee565b60405180910390fd5b60026000815480929190610f1f9061205c565b919050555060006001600060025481526020019081526020016000209050338160030160006101000a81548173ffffffffffffffffffffffffffffffffffffffff021916908373ffffffffffffffffffffffffffffffffffffffff16021790555085816001019081610f9191906123ba565b5084816002019081610fa391906123ba565b508381600601819055508281600401819055506000816007018190555081816008019081610fd191906123ba565b5060018160050160006101000a81548160ff0219169083151502179055507f66fdbe55c9f62e9b0a13f4a4917f6f6c284b6045f3651d35514851ac73d6e8cd60025487873387600160008b6040516110309897969594939291906124c7565b60405180910390a1505050505050565b60006003600084815260200190815260200160002060008373ffffffffffffffffffffffffffffffffffffffff1673ffffffffffffffffffffffffffffffffffffffff16815260200190815260200160002054905092915050565b806001600082815260200190815260200160002060030160009054906101000a900473ffffffffffffffffffffffffffffffffffffffff1673ffffffffffffffffffffffffffffffffffffffff163373ffffffffffffffffffffffffffffffffffffffff1614611140576040517f08c379a0000000000000000000000000000000000000000000000000000000008152600401611137906125c5565b60405180910390fd5b81600115156001600083815260200190815260200160002060050160009054906101000a900460ff161515146111ab576040517f08c379a00000000000000000000000000000000000000000000000000000000081526004016111a290611d23565b60405180910390fd5b600060016000858152602001908152602001600020905060008160050160006101000a81548160ff0219169083151502179055508060030160009054906101000a900473ffffffffffffffffffffffffffffffffffffffff1673ffffffffffffffffffffffffffffffffffffffff166108fc82600701549081150290604051600060405180830381858888f1935050505015801561124d573d6000803e3d6000fd5b507f51badb398d896e349a3d1c7d4748f83263722dd29040d46f0c3af91f798030a7816000015482600101836007015460405161128c93929190612669565b60405180910390a150505050565b60006112a882600001611329565b9050919050565b60006112d7836000018373ffffffffffffffffffffffffffffffffffffffff1660001b61133a565b905092915050565b6000611307836000018373ffffffffffffffffffffffffffffffffffffffff1660001b61135d565b905092915050565b600061131e83600001836113cd565b60001c905092915050565b600081600001805490509050919050565b600080836001016000848152602001908152602001600020541415905092915050565b6000611369838361133a565b6113c25782600001829080600181540180825580915050600190039060005260206000200160009091909190915055826000018054905083600101600084815260200190815260200160002081905550600190506113c7565b600090505b92915050565b60008260000182815481106113e5576113e461202d565b5b9060005260206000200154905092915050565b604051806101200160405280600081526020016060815260200160608152602001600073ffffffffffffffffffffffffffffffffffffffff168152602001600081526020016000151581526020016000815260200160008152602001606081525090565b600081519050919050565b600082825260208201905092915050565b60005b8381101561149657808201518184015260208101905061147b565b60008484015250505050565b6000601f19601f8301169050919050565b60006114be8261145c565b6114c88185611467565b93506114d8818560208601611478565b6114e1816114a2565b840191505092915050565b6000602082019050818103600083015261150681846114b3565b905092915050565b6000819050919050565b6115218161150e565b82525050565b600060208201905061153c6000830184611518565b92915050565b6000604051905090565b600080fd5b600080fd5b61155f8161150e565b811461156a57600080fd5b50565b60008135905061157c81611556565b92915050565b6000602082840312156115985761159761154c565b5b60006115a68482850161156d565b91505092915050565b600073ffffffffffffffffffffffffffffffffffffffff82169050919050565b60006115da826115af565b9050919050565b6115ea816115cf565b82525050565b60008115159050919050565b611605816115f0565b82525050565b600061012082019050611621600083018c611518565b8181036020830152611633818b6114b3565b90508181036040830152611647818a6114b3565b905061165660608301896115e1565b6116636080830188611518565b61167060a08301876115fc565b61167d60c0830186611518565b61168a60e0830185611518565b81810361010083015261169d81846114b3565b90509a9950505050505050505050565b6116b6816115cf565b81146116c157600080fd5b50565b6000813590506116d3816116ad565b92915050565b600080604083850312156116f0576116ef61154c565b5b60006116fe8582860161156d565b925050602061170f858286016116c4565b9150509250929050565b600080604083850312156117305761172f61154c565b5b600061173e8582860161156d565b925050602061174f8582860161156d565b9150509250929050565b600060208201905061176e60008301846115e1565b92915050565b600081519050919050565b600082825260208201905092915050565b6000819050602082019050919050565b6117a9816115cf565b82525050565b60006117bb83836117a0565b60208301905092915050565b6000602082019050919050565b60006117df82611774565b6117e9818561177f565b93506117f483611790565b8060005b8381101561182557815161180c88826117af565b9750611817836117c7565b9250506001810190506117f8565b5085935050505092915050565b6000602082019050818103600083015261184c81846117d4565b905092915050565b600081519050919050565b600082825260208201905092915050565b6000819050602082019050919050565b6118898161150e565b82525050565b600082825260208201905092915050565b60006118ab8261145c565b6118b5818561188f565b93506118c5818560208601611478565b6118ce816114a2565b840191505092915050565b6118e2816115f0565b82525050565b6000610120830160008301516119016000860182611880565b506020830151848203602086015261191982826118a0565b9150506040830151848203604086015261193382826118a0565b915050606083015161194860608601826117a0565b50608083015161195b6080860182611880565b5060a083015161196e60a08601826118d9565b5060c083015161198160c0860182611880565b5060e083015161199460e0860182611880565b506101008301518482036101008601526119ae82826118a0565b9150508091505092915050565b60006119c783836118e8565b905092915050565b6000602082019050919050565b60006119e782611854565b6119f1818561185f565b935083602082028501611a0385611870565b8060005b85811015611a3f5784840389528151611a2085826119bb565b9450611a2b836119cf565b925060208a01995050600181019050611a07565b50829750879550505050505092915050565b60006020820190508181036000830152611a6b81846119dc565b905092915050565b600080fd5b600080fd5b7f4e487b7100000000000000000000000000000000000000000000000000000000600052604160045260246000fd5b611ab5826114a2565b810181811067ffffffffffffffff82111715611ad457611ad3611a7d565b5b80604052505050565b6000611ae7611542565b9050611af38282611aac565b919050565b600067ffffffffffffffff821115611b1357611b12611a7d565b5b611b1c826114a2565b9050602081019050919050565b82818337600083830152505050565b6000611b4b611b4684611af8565b611add565b905082815260208101848484011115611b6757611b66611a78565b5b611b72848285611b29565b509392505050565b600082601f830112611b8f57611b8e611a73565b5b8135611b9f848260208601611b38565b91505092915050565b600080600080600060a08688031215611bc457611bc361154c565b5b600086013567ffffffffffffffff811115611be257611be1611551565b5b611bee88828901611b7a565b955050602086013567ffffffffffffffff811115611c0f57611c0e611551565b5b611c1b88828901611b7a565b9450506040611c2c8882890161156d565b9350506060611c3d8882890161156d565b925050608086013567ffffffffffffffff811115611c5e57611c5d611551565b5b611c6a88828901611b7a565b9150509295509295909350565b7f4e487b7100000000000000000000000000000000000000000000000000000000600052602260045260246000fd5b60006002820490506001821680611cbe57607f821691505b602082108103611cd157611cd0611c77565b5b50919050565b7f50726f6a65637420646f6573206e6f7420657869737400000000000000000000600082015250565b6000611d0d601683611467565b9150611d1882611cd7565b602082019050919050565b60006020820190508181036000830152611d3c81611d00565b9050919050565b7f50726f6a65637420697320636c6f7365642e0000000000000000000000000000600082015250565b6000611d79601283611467565b9150611d8482611d43565b602082019050919050565b60006020820190508181036000830152611da881611d6c565b9050919050565b7f4f776e65722063616e27742066756e64207468652070726f6a6563742063726560008201527f61746564206279207468656d73656c7665732e00000000000000000000000000602082015250565b6000611e0b603383611467565b9150611e1682611daf565b604082019050919050565b60006020820190508181036000830152611e3a81611dfe565b9050919050565b7f46756e64696e6720616d6f756e74206d7573742062652067726561746572207460008201527f68616e20302e0000000000000000000000000000000000000000000000000000602082015250565b6000611e9d602683611467565b9150611ea882611e41565b604082019050919050565b60006020820190508181036000830152611ecc81611e90565b9050919050565b600081905092915050565b50565b6000611eee600083611ed3565b9150611ef982611ede565b600082019050919050565b6000611f0f82611ee1565b9150819050919050565b7f4661696c656420746f2073656e642045746865722e0000000000000000000000600082015250565b6000611f4f601583611467565b9150611f5a82611f19565b602082019050919050565b60006020820190508181036000830152611f7e81611f42565b9050919050565b7f4e487b7100000000000000000000000000000000000000000000000000000000600052601160045260246000fd5b6000611fbf8261150e565b9150611fca8361150e565b9250828201905080821115611fe257611fe1611f85565b5b92915050565b6000608082019050611ffd6000830187611518565b61200a60208301866115e1565b61201760408301856115e1565b6120246060830184611518565b95945050505050565b7f4e487b7100000000000000000000000000000000000000000000000000000000600052603260045260246000fd5b60006120678261150e565b91507fffffffffffffffffffffffffffffffffffffffffffffffffffffffffffffffff820361209957612098611f85565b5b600182019050919050565b7f4e616d6520697320726571756972656400000000000000000000000000000000600082015250565b60006120da601083611467565b91506120e5826120a4565b602082019050919050565b60006020820190508181036000830152612109816120cd565b9050919050565b7f546172676574206d7573742062652067726561746572207468616e2030000000600082015250565b6000612146601d83611467565b915061215182612110565b602082019050919050565b6000602082019050818103600083015261217581612139565b9050919050565b7f54686520646561646c696e652073686f756c642062652061206461746520696e60008201527f20746865206675747572652e0000000000000000000000000000000000000000602082015250565b60006121d8602c83611467565b91506121e38261217c565b604082019050919050565b60006020820190508181036000830152612207816121cb565b9050919050565b60008190508160005260206000209050919050565b60006020601f8301049050919050565b600082821b905092915050565b6000600883026122707fffffffffffffffffffffffffffffffffffffffffffffffffffffffffffffffff82612233565b61227a8683612233565b95508019841693508086168417925050509392505050565b6000819050919050565b60006122b76122b26122ad8461150e565b612292565b61150e565b9050919050565b6000819050919050565b6122d18361229c565b6122e56122dd826122be565b848454612240565b825550505050565b600090565b6122fa6122ed565b6123058184846122c8565b505050565b5b818110156123295761231e6000826122f2565b60018101905061230b565b5050565b601f82111561236e5761233f8161220e565b61234884612223565b81016020851015612357578190505b61236b61236385612223565b83018261230a565b50505b505050565b600082821c905092915050565b600061239160001984600802612373565b1980831691505092915050565b60006123aa8383612380565b9150826002028217905092915050565b6123c38261145c565b67ffffffffffffffff8111156123dc576123db611a7d565b5b6123e68254611ca6565b6123f182828561232d565b600060209050601f8311600181146124245760008415612412578287015190505b61241c858261239e565b865550612484565b601f1984166124328661220e565b60005b8281101561245a57848901518255600182019150602085019450602081019050612435565b868310156124775784890151612473601f891682612380565b8355505b6001600288020188555050505b505050505050565b6000819050919050565b60006124b16124ac6124a78461248c565b612292565b61150e565b9050919050565b6124c181612496565b82525050565b6000610100820190506124dd600083018b611518565b81810360208301526124ef818a6114b3565b9050818103604083015261250381896114b3565b905061251260608301886115e1565b61251f6080830187611518565b61252c60a08301866115fc565b61253960c08301856124b8565b61254660e0830184611518565b9998505050505050505050565b7f4f6e6c79206f776e65722063616e20636c6f736520746869732070726f6a656360008201527f7400000000000000000000000000000000000000000000000000000000000000602082015250565b60006125af602183611467565b91506125ba82612553565b604082019050919050565b600060208201905081810360008301526125de816125a2565b9050919050565b600081546125f281611ca6565b6125fc8186611467565b94506001821660008114612617576001811461262d57612660565b60ff198316865281151560200286019350612660565b6126368561220e565b60005b8381101561265857815481890152600182019150602081019050612639565b808801955050505b50505092915050565b600060608201905061267e6000830186611518565b818103602083015261269081856125e5565b905061269f6040830184611518565b94935050505056fea26469706673582212202f3ea60b645a39842b55b97447decf401c046cc29d8833c616b28bddcadbab4164736f6c63430008130033",
  "immutableReferences": {},
  "source": "// SPDX-License-Identifier: UNLICENSED\npragma solidity ^0.8.19;\nimport \"@openzeppelin/contracts/utils/structs/EnumerableSet.sol\";\n\ncontract CrowdFunding {\n    using EnumerableSet for EnumerableSet.AddressSet;\n\n    string public name;\n\n    struct Campaign {\n        uint256 id;\n        string name;\n        string description;\n        address owner;\n        uint256 endDate;\n        bool exists;\n        uint256 target;\n        uint256 amountCollected;\n        string image;\n    }\n\n    mapping(uint256 => Campaign) public campaigns;\n    uint256 public numberOfCampaigns = 0;\n\n    mapping(uint256 => mapping(address => uint256)) public contributions;\n    mapping(uint256 => EnumerableSet.AddressSet) private contributors;\n\n    event CampaignCreated(\n        uint256 id,\n        string name,\n        string description,\n        address owner,\n        uint256 endDate,\n        bool exists,\n        uint256 amountCollected,\n        uint256 target\n    );\n\n    event CampaignFunded(\n        uint256 id,\n        address owner,\n        address donator,\n        uint256 amount\n    );\n\n    event CampaignEnded(uint256 id, string name, uint256 amountCollected);\n\n    // constructor() {\n    //     name = \"CrowdFunding\";\n    // }\n\n    modifier OnlyOwner(uint256 id) {\n        require(\n            msg.sender == campaigns[id].owner,\n            \"Only owner can close this project\"\n        );\n        _;\n    }\n\n    modifier CampaignExists(uint256 id) {\n        require(campaigns[id].exists == true, \"Project does not exist\");\n        _;\n    }\n\n    function createCampaign(\n        string memory _name,\n        string memory _description,\n        uint256 _target,\n        uint256 _endDate,\n        string memory _image\n    ) public {\n        require(bytes(_name).length > 0, \"Name is required\");\n        require(_target > 0, \"Target must be greater than 0\");\n        require(\n            _endDate > block.timestamp,\n            \"The deadline should be a date in the future.\"\n        );\n\n        numberOfCampaigns++;\n\n        Campaign storage campaign = campaigns[numberOfCampaigns];\n        campaign.owner = msg.sender;\n        campaign.name = _name;\n        campaign.description = _description;\n        campaign.target = _target;\n        campaign.endDate = _endDate;\n        campaign.amountCollected = 0;\n        campaign.image = _image;\n        campaign.exists = true;\n\n        emit CampaignCreated(\n            numberOfCampaigns,\n            _name,\n            _description,\n            msg.sender,\n            _endDate,\n            true,\n            0,\n            _target\n        );\n    }\n\n    function donateToCampaign(uint256 _id) public payable CampaignExists(_id) {\n        uint256 amount = msg.value;\n        Campaign storage campaign = campaigns[_id];\n\n        require(block.timestamp < campaign.endDate, \"Project is closed.\");\n        require(\n            campaign.owner != msg.sender,\n            \"Owner can't fund the project created by themselves.\"\n        );\n        require(amount > 0, \"Funding amount must be greater than 0.\");\n\n        (bool sent, ) = payable(campaign.owner).call{value: amount}(\"\");\n        require(sent, \"Failed to send Ether.\");\n\n        campaign.amountCollected += amount;\n        contributions[_id][msg.sender] += amount;\n\n        if (!contributors[_id].contains(msg.sender)) {\n            contributors[_id].add(msg.sender);\n        }\n\n        emit CampaignFunded(_id, campaign.owner, msg.sender, amount);\n    }\n\n    function closeCampaigns(\n        uint256 _id\n    ) public OnlyOwner(_id) CampaignExists(_id) {\n        Campaign storage campaign = campaigns[_id];\n        campaign.exists = false;\n        payable(campaign.owner).transfer(campaign.amountCollected);\n        emit CampaignEnded(\n            campaign.id,\n            campaign.name,\n            campaign.amountCollected\n        );\n    }\n\n    function getContributorsCount(uint256 _id) public view returns (uint256) {\n        return contributors[_id].length();\n    }\n\n    function getContributor(\n        uint256 _id,\n        uint256 index\n    ) public view returns (address) {\n        return contributors[_id].at(index);\n    }\n\n    function getContribution(\n        uint256 _id,\n        address contributor\n    ) public view returns (uint256) {\n        return contributions[_id][contributor];\n    }\n\n    function getAllContributors(\n        uint256 _id\n    ) public view returns (address[] memory) {\n        uint256 contributorsCount = contributors[_id].length();\n        address[] memory contributorList = new address[](contributorsCount);\n\n        for (uint256 i = 0; i < contributorsCount; i++) {\n            contributorList[i] = contributors[_id].at(i);\n        }\n\n        return contributorList;\n    }\n\n    function balanceOfCampaigns() public view returns (uint256) {\n        return address(this).balance;\n    }\n\n    function getCampaigns() public view returns (Campaign[] memory) {\n        Campaign[] memory allCampaigns = new Campaign[](numberOfCampaigns);\n\n        for (uint i = 0; i < numberOfCampaigns; i++) {\n            allCampaigns[i] = campaigns[i];\n        }\n\n        return allCampaigns;\n    }\n}\n",
  "sourcePath": "/Users/akmaral/Desktop/Projects/blockchain/crowdfunding/web3/contracts/CrowdFunding.sol",
  "compiler": {
    "name": "solc",
    "version": "0.8.19+commit.7dd6d404.Emscripten.clang"
  },
  "schemaVersion": "3.4.16",
  "updatedAt": "2024-12-12T14:07:16.692Z",
  "networkType": "ethereum",
  "devdoc": {
    "kind": "dev",
    "methods": {},
    "version": 1
  },
  "userdoc": {
    "kind": "user",
    "methods": {},
    "version": 1
  }
}